{
  "_format": "hh-sol-artifact-1",
  "contractName": "IncidentRegistry",
  "sourceName": "contracts/IncidentRegistry.sol",
  "abi": [
    {
      "inputs": [],
      "stateMutability": "nonpayable",
      "type": "constructor"
    },
    {
      "anonymous": false,
      "inputs": [
        {
          "indexed": true,
          "internalType": "uint256",
          "name": "incidentId",
          "type": "uint256"
        },
        {
          "indexed": false,
          "internalType": "string",
          "name": "imageCID",
          "type": "string"
        },
        {
          "indexed": false,
          "internalType": "string",
          "name": "metadataCID",
          "type": "string"
        },
        {
          "indexed": false,
          "internalType": "bytes32",
          "name": "combinedHash",
          "type": "bytes32"
        },
        {
          "indexed": true,
          "internalType": "address",
          "name": "reporter",
          "type": "address"
        },
        {
          "indexed": false,
          "internalType": "uint256",
          "name": "timestamp",
          "type": "uint256"
        }
      ],
      "name": "IncidentSubmitted",
      "type": "event"
    },
    {
      "anonymous": false,
      "inputs": [
        {
          "indexed": true,
          "internalType": "uint256",
          "name": "incidentId",
          "type": "uint256"
        },
        {
          "indexed": false,
          "internalType": "bool",
          "name": "verified",
          "type": "bool"
        }
      ],
      "name": "IncidentVerified",
      "type": "event"
    },
    {
      "anonymous": false,
      "inputs": [
        {
          "indexed": true,
          "internalType": "address",
          "name": "oldRelayer",
          "type": "address"
        },
        {
          "indexed": true,
          "internalType": "address",
          "name": "newRelayer",
          "type": "address"
        }
      ],
      "name": "RelayerUpdated",
      "type": "event"
    },
    {
      "inputs": [
        {
          "internalType": "uint256",
          "name": "_incidentId",
          "type": "uint256"
        }
      ],
      "name": "getIncident",
      "outputs": [
        {
          "internalType": "string",
          "name": "imageCID",
          "type": "string"
        },
        {
          "internalType": "string",
          "name": "metadataCID",
          "type": "string"
        },
        {
          "internalType": "bytes32",
          "name": "combinedHash",
          "type": "bytes32"
        },
        {
          "internalType": "address",
          "name": "reporter",
          "type": "address"
        },
        {
          "internalType": "uint256",
          "name": "timestamp",
          "type": "uint256"
        },
        {
          "internalType": "bool",
          "name": "verified",
          "type": "bool"
        }
      ],
      "stateMutability": "view",
      "type": "function"
    },
    {
      "inputs": [
        {
          "internalType": "address",
          "name": "_reporter",
          "type": "address"
        }
      ],
      "name": "getIncidentsByReporter",
      "outputs": [
        {
          "internalType": "uint256[]",
          "name": "",
          "type": "uint256[]"
        }
      ],
      "stateMutability": "view",
      "type": "function"
    },
    {
      "inputs": [],
      "name": "incidentCount",
      "outputs": [
        {
          "internalType": "uint256",
          "name": "",
          "type": "uint256"
        }
      ],
      "stateMutability": "view",
      "type": "function"
    },
    {
      "inputs": [
        {
          "internalType": "uint256",
          "name": "",
          "type": "uint256"
        }
      ],
      "name": "incidents",
      "outputs": [
        {
          "internalType": "string",
          "name": "imageCID",
          "type": "string"
        },
        {
          "internalType": "string",
          "name": "metadataCID",
          "type": "string"
        },
        {
          "internalType": "bytes32",
          "name": "combinedHash",
          "type": "bytes32"
        },
        {
          "internalType": "address",
          "name": "reporter",
          "type": "address"
        },
        {
          "internalType": "uint256",
          "name": "timestamp",
          "type": "uint256"
        },
        {
          "internalType": "bool",
          "name": "verified",
          "type": "bool"
        }
      ],
      "stateMutability": "view",
      "type": "function"
    },
    {
      "inputs": [],
      "name": "owner",
      "outputs": [
        {
          "internalType": "address",
          "name": "",
          "type": "address"
        }
      ],
      "stateMutability": "view",
      "type": "function"
    },
    {
      "inputs": [],
      "name": "relayer",
      "outputs": [
        {
          "internalType": "address",
          "name": "",
          "type": "address"
        }
      ],
      "stateMutability": "view",
      "type": "function"
    },
    {
      "inputs": [
        {
          "internalType": "string",
          "name": "_imageCID",
          "type": "string"
        },
        {
          "internalType": "string",
          "name": "_metadataCID",
          "type": "string"
        },
        {
          "internalType": "bytes32",
          "name": "_combinedHash",
          "type": "bytes32"
        },
        {
          "internalType": "address",
          "name": "_reporter",
          "type": "address"
        }
      ],
      "name": "submitIncident",
      "outputs": [
        {
          "internalType": "uint256",
          "name": "",
          "type": "uint256"
        }
      ],
      "stateMutability": "nonpayable",
      "type": "function"
    },
    {
      "inputs": [
        {
          "internalType": "string[]",
          "name": "_imageCIDs",
          "type": "string[]"
        },
        {
          "internalType": "string[]",
          "name": "_metadataCIDs",
          "type": "string[]"
        },
        {
          "internalType": "bytes32[]",
          "name": "_combinedHashes",
          "type": "bytes32[]"
        },
        {
          "internalType": "address[]",
          "name": "_reporters",
          "type": "address[]"
        }
      ],
      "name": "submitIncidentBatch",
      "outputs": [
        {
          "internalType": "uint256[]",
          "name": "",
          "type": "uint256[]"
        }
      ],
      "stateMutability": "nonpayable",
      "type": "function"
    },
    {
      "inputs": [
        {
          "internalType": "address",
          "name": "_newRelayer",
          "type": "address"
        }
      ],
      "name": "updateRelayer",
      "outputs": [],
      "stateMutability": "nonpayable",
      "type": "function"
    },
    {
      "inputs": [
        {
          "internalType": "uint256",
          "name": "_incidentId",
          "type": "uint256"
        },
        {
          "internalType": "bool",
          "name": "_verified",
          "type": "bool"
        }
      ],
      "name": "verifyIncident",
      "outputs": [],
      "stateMutability": "nonpayable",
      "type": "function"
    }
  ],
  "bytecode": "0x608060405234801561001057600080fd5b50600380546001600160a01b0319908116339081179092556002805490911690911790556000600155611348806100486000396000f3fe608060405234801561001057600080fd5b506004361061009e5760003560e01c80639578615e116100665780639578615e1461012f578063a09b86ac14610154578063a6c6a8f31461015d578063a779ec4114610170578063fbed965a1461019057600080fd5b80630d4dc9e4146100a357806336675964146100c95780638406c079146100de5780638da5cb5b146101095780638f83ab131461011c575b600080fd5b6100b66100b1366004610d6f565b6101a3565b6040519081526020015b60405180910390f35b6100dc6100d7366004610ded565b610214565b005b6002546100f1906001600160a01b031681565b6040516001600160a01b0390911681526020016100c0565b6003546100f1906001600160a01b031681565b6100dc61012a366004610e22565b61030c565b61014261013d366004610e44565b610409565b6040516100c096959493929190610ea3565b6100b660015481565b61014261016b366004610e44565b61060a565b61018361017e36600461100f565b61075c565b6040516100c0919061110f565b61018361019e366004610e22565b61091b565b6002546000906001600160a01b031633146101ff5760405162461bcd60e51b815260206004820152601760248201527613db9b1e481c995b185e595c8818d85b881cdd589b5a5d604a1b60448201526064015b60405180910390fd5b61020b85858585610a31565b95945050505050565b6003546001600160a01b031633146102695760405162461bcd60e51b81526020600482015260186024820152774f6e6c79206f776e65722063616e2063616c6c207468697360401b60448201526064016101f6565b60015482106102b45760405162461bcd60e51b8152602060048201526017602482015276125b98da59195b9d08191bd95cc81b9bdd08195e1a5cdd604a1b60448201526064016101f6565b60008281526020818152604091829020600501805460ff1916841515908117909155915191825283917fc03fbd7d552042e57e35dcd96d675a74eb33022bbc56cbb1a05039425ebc90d5910160405180910390a25050565b6003546001600160a01b031633146103615760405162461bcd60e51b81526020600482015260186024820152774f6e6c79206f776e65722063616e2063616c6c207468697360401b60448201526064016101f6565b6001600160a01b0381166103b75760405162461bcd60e51b815260206004820152601760248201527f496e76616c69642072656c61796572206164647265737300000000000000000060448201526064016101f6565b600280546001600160a01b038381166001600160a01b0319831681179093556040519116919082907f605ca4e43489fb38b91aa63dd9147cd3847957694b080b9285ec898b34269f0c90600090a35050565b606080600080600080600154871061045d5760405162461bcd60e51b8152602060048201526017602482015276125b98da59195b9d08191bd95cc81b9bdd08195e1a5cdd604a1b60448201526064016101f6565b600087815260208190526040808220815160c0810190925280548290829061048490611153565b80601f01602080910402602001604051908101604052809291908181526020018280546104b090611153565b80156104fd5780601f106104d2576101008083540402835291602001916104fd565b820191906000526020600020905b8154815290600101906020018083116104e057829003601f168201915b5050505050815260200160018201805461051690611153565b80601f016020809104026020016040519081016040528092919081815260200182805461054290611153565b801561058f5780601f106105645761010080835404028352916020019161058f565b820191906000526020600020905b81548152906001019060200180831161057257829003601f168201915b5050509183525050600282015460208083019190915260038301546001600160a01b0316604080840191909152600484015460608085019190915260059094015460ff16151560809384015284519185015190850151938501519285015160a090950151919d909c50929a5090985091965090945092505050565b60006020819052908152604090208054819061062590611153565b80601f016020809104026020016040519081016040528092919081815260200182805461065190611153565b801561069e5780601f106106735761010080835404028352916020019161069e565b820191906000526020600020905b81548152906001019060200180831161068157829003601f168201915b5050505050908060010180546106b390611153565b80601f01602080910402602001604051908101604052809291908181526020018280546106df90611153565b801561072c5780601f106107015761010080835404028352916020019161072c565b820191906000526020600020905b81548152906001019060200180831161070f57829003601f168201915b50505050600283015460038401546004850154600590950154939491936001600160a01b03909116925060ff1686565b6002546060906001600160a01b031633146107b35760405162461bcd60e51b815260206004820152601760248201527613db9b1e481c995b185e595c8818d85b881cdd589b5a5d604a1b60448201526064016101f6565b835185511480156107c5575082518551145b80156107d2575081518551145b61081e5760405162461bcd60e51b815260206004820152601860248201527f4172726179206c656e67746873206d757374206d61746368000000000000000060448201526064016101f6565b6000855167ffffffffffffffff81111561083a5761083a610c9c565b604051908082528060200260200182016040528015610863578160200160208202803683370190505b50905060005b8651811015610911576108e28782815181106108875761088761118d565b60200260200101518783815181106108a1576108a161118d565b60200260200101518784815181106108bb576108bb61118d565b60200260200101518785815181106108d5576108d561118d565b6020026020010151610a31565b8282815181106108f4576108f461118d565b602090810291909101015280610909816111a3565b915050610869565b5095945050505050565b60606000805b60015481101561096f576000818152602081905260409020600301546001600160a01b0380861691160361095d5781610959816111a3565b9250505b80610967816111a3565b915050610921565b5060008167ffffffffffffffff81111561098b5761098b610c9c565b6040519080825280602002602001820160405280156109b4578160200160208202803683370190505b5090506000805b600154811015610a27576000818152602081905260409020600301546001600160a01b03808816911603610a1557808383815181106109fc576109fc61118d565b602090810291909101015281610a11816111a3565b9250505b80610a1f816111a3565b9150506109bb565b5090949350505050565b600080855111610a835760405162461bcd60e51b815260206004820152601960248201527f496d616765204349442063616e6e6f7420626520656d7074790000000000000060448201526064016101f6565b6000845111610ad45760405162461bcd60e51b815260206004820152601c60248201527f4d65746164617461204349442063616e6e6f7420626520656d7074790000000060448201526064016101f6565b82610b215760405162461bcd60e51b815260206004820152601d60248201527f436f6d62696e656420686173682063616e6e6f7420626520656d70747900000060448201526064016101f6565b6001600160a01b038216610b775760405162461bcd60e51b815260206004820152601860248201527f496e76616c6964207265706f727465722061646472657373000000000000000060448201526064016101f6565b6001546040805160c08101825287815260208082018890528183018790526001600160a01b0386166060830152426080830152600060a08301819052848152908190529190912081518190610bcc9082611219565b5060208201516001820190610be19082611219565b506040820151600282015560608201516003820180546001600160a01b0319166001600160a01b039092169190911790556080820151600482015560a0909101516005909101805460ff191691151591909117905560018054906000610c46836111a3565b9190505550826001600160a01b0316817f24d20b4052052eaa3a6769879284ad1ac9b86ae62d58ed0d88a62cee0d4cdd1d88888842604051610c8b94939291906112d9565b60405180910390a395945050505050565b634e487b7160e01b600052604160045260246000fd5b604051601f8201601f1916810167ffffffffffffffff81118282101715610cdb57610cdb610c9c565b604052919050565b600082601f830112610cf457600080fd5b813567ffffffffffffffff811115610d0e57610d0e610c9c565b610d21601f8201601f1916602001610cb2565b818152846020838601011115610d3657600080fd5b816020850160208301376000918101602001919091529392505050565b80356001600160a01b0381168114610d6a57600080fd5b919050565b60008060008060808587031215610d8557600080fd5b843567ffffffffffffffff80821115610d9d57600080fd5b610da988838901610ce3565b95506020870135915080821115610dbf57600080fd5b50610dcc87828801610ce3565b93505060408501359150610de260608601610d53565b905092959194509250565b60008060408385031215610e0057600080fd5b8235915060208301358015158114610e1757600080fd5b809150509250929050565b600060208284031215610e3457600080fd5b610e3d82610d53565b9392505050565b600060208284031215610e5657600080fd5b5035919050565b6000815180845260005b81811015610e8357602081850181015186830182015201610e67565b506000602082860101526020601f19601f83011685010191505092915050565b60c081526000610eb660c0830189610e5d565b8281036020840152610ec88189610e5d565b604084019790975250506001600160a01b039390931660608401526080830191909152151560a09091015292915050565b600067ffffffffffffffff821115610f1357610f13610c9c565b5060051b60200190565b600082601f830112610f2e57600080fd5b81356020610f43610f3e83610ef9565b610cb2565b82815260059290921b84018101918181019086841115610f6257600080fd5b8286015b84811015610fa257803567ffffffffffffffff811115610f865760008081fd5b610f948986838b0101610ce3565b845250918301918301610f66565b509695505050505050565b600082601f830112610fbe57600080fd5b81356020610fce610f3e83610ef9565b82815260059290921b84018101918181019086841115610fed57600080fd5b8286015b84811015610fa25761100281610d53565b8352918301918301610ff1565b6000806000806080858703121561102557600080fd5b843567ffffffffffffffff8082111561103d57600080fd5b61104988838901610f1d565b955060209150818701358181111561106057600080fd5b61106c89828a01610f1d565b95505060408701358181111561108157600080fd5b8701601f8101891361109257600080fd5b80356110a0610f3e82610ef9565b81815260059190911b8201840190848101908b8311156110bf57600080fd5b928501925b828410156110dd578335825292850192908501906110c4565b965050505060608701359150808211156110f657600080fd5b5061110387828801610fad565b91505092959194509250565b6020808252825182820181905260009190848201906040850190845b818110156111475783518352928401929184019160010161112b565b50909695505050505050565b600181811c9082168061116757607f821691505b60208210810361118757634e487b7160e01b600052602260045260246000fd5b50919050565b634e487b7160e01b600052603260045260246000fd5b6000600182016111c357634e487b7160e01b600052601160045260246000fd5b5060010190565b601f82111561121457600081815260208120601f850160051c810160208610156111f15750805b601f850160051c820191505b81811015611210578281556001016111fd565b5050505b505050565b815167ffffffffffffffff81111561123357611233610c9c565b611247816112418454611153565b846111ca565b602080601f83116001811461127c57600084156112645750858301515b600019600386901b1c1916600185901b178555611210565b600085815260208120601f198616915b828110156112ab5788860151825594840194600190910190840161128c565b50858210156112c95787850151600019600388901b60f8161c191681555b5050505050600190811b01905550565b6080815260006112ec6080830187610e5d565b82810360208401526112fe8187610e5d565b60408401959095525050606001529291505056fea26469706673582212201279b462ca2b9484a5f3483d3d868b39718c59e0c2fc42d46668793f31ccc18364736f6c63430008140033",
  "linkReferences": {},
  "deployedLinkReferences": {}
}