{
  "_format": "hh-sol-artifact-1",
  "contractName": "Nirbhaya",
  "sourceName": "contracts/Swaraksha.sol",
  "abi": [
    {
      "inputs": [],
      "stateMutability": "nonpayable",
      "type": "constructor"
    },
    {
      "inputs": [
        {
          "internalType": "string",
          "name": "_title",
          "type": "string"
        },
        {
          "internalType": "string",
          "name": "_description",
          "type": "string"
        },
        {
          "internalType": "string",
          "name": "_fullText",
          "type": "string"
        },
        {
          "internalType": "string",
          "name": "_location",
          "type": "string"
        },
        {
          "internalType": "string",
          "name": "_latitude",
          "type": "string"
        },
        {
          "internalType": "string",
          "name": "_longitude",
          "type": "string"
        },
        {
          "internalType": "string",
          "name": "_image",
          "type": "string"
        },
        {
          "internalType": "string",
          "name": "_severity",
          "type": "string"
        },
        {
          "internalType": "string",
          "name": "_pincode",
          "type": "string"
        }
      ],
      "name": "addReport",
      "outputs": [],
      "stateMutability": "nonpayable",
      "type": "function"
    },
    {
      "inputs": [
        {
          "internalType": "address",
          "name": "_user",
          "type": "address"
        }
      ],
      "name": "addUserToWhitelist",
      "outputs": [],
      "stateMutability": "nonpayable",
      "type": "function"
    },
    {
      "inputs": [],
      "name": "getAllReports",
      "outputs": [
        {
          "components": [
            {
              "internalType": "uint256",
              "name": "caseId",
              "type": "uint256"
            },
            {
              "internalType": "string",
              "name": "title",
              "type": "string"
            },
            {
              "internalType": "string",
              "name": "description",
              "type": "string"
            },
            {
              "internalType": "string",
              "name": "fullText",
              "type": "string"
            },
            {
              "internalType": "string",
              "name": "location",
              "type": "string"
            },
            {
              "internalType": "string",
              "name": "latitude",
              "type": "string"
            },
            {
              "internalType": "string",
              "name": "longitude",
              "type": "string"
            },
            {
              "internalType": "string",
              "name": "image",
              "type": "string"
            },
            {
              "internalType": "string",
              "name": "severity",
              "type": "string"
            },
            {
              "internalType": "string",
              "name": "pincode",
              "type": "string"
            },
            {
              "internalType": "uint256",
              "name": "timestamp",
              "type": "uint256"
            },
            {
              "internalType": "address",
              "name": "userAddress",
              "type": "address"
            }
          ],
          "internalType": "struct Nirbhaya.Report[]",
          "name": "",
          "type": "tuple[]"
        }
      ],
      "stateMutability": "view",
      "type": "function"
    },
    {
      "inputs": [
        {
          "internalType": "uint256",
          "name": "_caseId",
          "type": "uint256"
        }
      ],
      "name": "getReportById",
      "outputs": [
        {
          "components": [
            {
              "internalType": "uint256",
              "name": "caseId",
              "type": "uint256"
            },
            {
              "internalType": "string",
              "name": "title",
              "type": "string"
            },
            {
              "internalType": "string",
              "name": "description",
              "type": "string"
            },
            {
              "internalType": "string",
              "name": "fullText",
              "type": "string"
            },
            {
              "internalType": "string",
              "name": "location",
              "type": "string"
            },
            {
              "internalType": "string",
              "name": "latitude",
              "type": "string"
            },
            {
              "internalType": "string",
              "name": "longitude",
              "type": "string"
            },
            {
              "internalType": "string",
              "name": "image",
              "type": "string"
            },
            {
              "internalType": "string",
              "name": "severity",
              "type": "string"
            },
            {
              "internalType": "string",
              "name": "pincode",
              "type": "string"
            },
            {
              "internalType": "uint256",
              "name": "timestamp",
              "type": "uint256"
            },
            {
              "internalType": "address",
              "name": "userAddress",
              "type": "address"
            }
          ],
          "internalType": "struct Nirbhaya.Report",
          "name": "",
          "type": "tuple"
        }
      ],
      "stateMutability": "view",
      "type": "function"
    },
    {
      "inputs": [
        {
          "internalType": "string",
          "name": "_pincode",
          "type": "string"
        }
      ],
      "name": "getReportsByPincode",
      "outputs": [
        {
          "components": [
            {
              "internalType": "uint256",
              "name": "caseId",
              "type": "uint256"
            },
            {
              "internalType": "string",
              "name": "title",
              "type": "string"
            },
            {
              "internalType": "string",
              "name": "description",
              "type": "string"
            },
            {
              "internalType": "string",
              "name": "fullText",
              "type": "string"
            },
            {
              "internalType": "string",
              "name": "location",
              "type": "string"
            },
            {
              "internalType": "string",
              "name": "latitude",
              "type": "string"
            },
            {
              "internalType": "string",
              "name": "longitude",
              "type": "string"
            },
            {
              "internalType": "string",
              "name": "image",
              "type": "string"
            },
            {
              "internalType": "string",
              "name": "severity",
              "type": "string"
            },
            {
              "internalType": "string",
              "name": "pincode",
              "type": "string"
            },
            {
              "internalType": "uint256",
              "name": "timestamp",
              "type": "uint256"
            },
            {
              "internalType": "address",
              "name": "userAddress",
              "type": "address"
            }
          ],
          "internalType": "struct Nirbhaya.Report[]",
          "name": "",
          "type": "tuple[]"
        }
      ],
      "stateMutability": "view",
      "type": "function"
    },
    {
      "inputs": [
        {
          "internalType": "string",
          "name": "_severity",
          "type": "string"
        }
      ],
      "name": "getReportsBySeverity",
      "outputs": [
        {
          "components": [
            {
              "internalType": "uint256",
              "name": "caseId",
              "type": "uint256"
            },
            {
              "internalType": "string",
              "name": "title",
              "type": "string"
            },
            {
              "internalType": "string",
              "name": "description",
              "type": "string"
            },
            {
              "internalType": "string",
              "name": "fullText",
              "type": "string"
            },
            {
              "internalType": "string",
              "name": "location",
              "type": "string"
            },
            {
              "internalType": "string",
              "name": "latitude",
              "type": "string"
            },
            {
              "internalType": "string",
              "name": "longitude",
              "type": "string"
            },
            {
              "internalType": "string",
              "name": "image",
              "type": "string"
            },
            {
              "internalType": "string",
              "name": "severity",
              "type": "string"
            },
            {
              "internalType": "string",
              "name": "pincode",
              "type": "string"
            },
            {
              "internalType": "uint256",
              "name": "timestamp",
              "type": "uint256"
            },
            {
              "internalType": "address",
              "name": "userAddress",
              "type": "address"
            }
          ],
          "internalType": "struct Nirbhaya.Report[]",
          "name": "",
          "type": "tuple[]"
        }
      ],
      "stateMutability": "view",
      "type": "function"
    },
    {
      "inputs": [
        {
          "internalType": "address",
          "name": "_user",
          "type": "address"
        }
      ],
      "name": "getReportsByUser",
      "outputs": [
        {
          "components": [
            {
              "internalType": "uint256",
              "name": "caseId",
              "type": "uint256"
            },
            {
              "internalType": "string",
              "name": "title",
              "type": "string"
            },
            {
              "internalType": "string",
              "name": "description",
              "type": "string"
            },
            {
              "internalType": "string",
              "name": "fullText",
              "type": "string"
            },
            {
              "internalType": "string",
              "name": "location",
              "type": "string"
            },
            {
              "internalType": "string",
              "name": "latitude",
              "type": "string"
            },
            {
              "internalType": "string",
              "name": "longitude",
              "type": "string"
            },
            {
              "internalType": "string",
              "name": "image",
              "type": "string"
            },
            {
              "internalType": "string",
              "name": "severity",
              "type": "string"
            },
            {
              "internalType": "string",
              "name": "pincode",
              "type": "string"
            },
            {
              "internalType": "uint256",
              "name": "timestamp",
              "type": "uint256"
            },
            {
              "internalType": "address",
              "name": "userAddress",
              "type": "address"
            }
          ],
          "internalType": "struct Nirbhaya.Report[]",
          "name": "",
          "type": "tuple[]"
        }
      ],
      "stateMutability": "view",
      "type": "function"
    },
    {
      "inputs": [],
      "name": "getTotalReports",
      "outputs": [
        {
          "internalType": "uint256",
          "name": "",
          "type": "uint256"
        }
      ],
      "stateMutability": "view",
      "type": "function"
    },
    {
      "inputs": [
        {
          "internalType": "address",
          "name": "_user",
          "type": "address"
        }
      ],
      "name": "isWhitelisted",
      "outputs": [
        {
          "internalType": "bool",
          "name": "",
          "type": "bool"
        }
      ],
      "stateMutability": "view",
      "type": "function"
    },
    {
      "inputs": [],
      "name": "owner",
      "outputs": [
        {
          "internalType": "address",
          "name": "",
          "type": "address"
        }
      ],
      "stateMutability": "view",
      "type": "function"
    },
    {
      "inputs": [
        {
          "internalType": "address",
          "name": "_user",
          "type": "address"
        }
      ],
      "name": "removeUserFromWhitelist",
      "outputs": [],
      "stateMutability": "nonpayable",
      "type": "function"
    },
    {
      "inputs": [
        {
          "internalType": "uint256",
          "name": "_caseId",
          "type": "uint256"
        }
      ],
      "name": "reportExists",
      "outputs": [
        {
          "internalType": "bool",
          "name": "",
          "type": "bool"
        }
      ],
      "stateMutability": "view",
      "type": "function"
    },
    {
      "inputs": [
        {
          "internalType": "address",
          "name": "",
          "type": "address"
        }
      ],
      "name": "whitelist",
      "outputs": [
        {
          "internalType": "bool",
          "name": "",
          "type": "bool"
        }
      ],
      "stateMutability": "view",
      "type": "function"
    }
  ],
  "bytecode": "0x6080604052600060015534801561001557600080fd5b50600080546001600160a01b03191633179055612eea806100376000396000f3fe608060405234801561001057600080fd5b50600436106100cf5760003560e01c80638da5cb5b1161008c578063cd19f40311610066578063cd19f403146101f5578063d4e9950014610208578063f3d3ddfa14610219578063f9902bb11461022157600080fd5b80638da5cb5b146101945780639b19251a146101bf578063a3bc1593146101e257600080fd5b806313b37d10146100d4578063162578e9146100fd5780633af32abf1461011057806345a05bfb1461014c5780635d6341871461016c578063747b805014610181575b600080fd5b6100e76100e23660046128b3565b610234565b6040516100f49190612a5e565b60405180910390f35b6100e761010b366004612ac0565b610977565b61013c61011e366004612ac0565b6001600160a01b031660009081526002602052604090205460ff1690565b60405190151581526020016100f4565b61015f61015a366004612af0565b610f3c565b6040516100f49190612b09565b61017f61017a366004612b1c565b611508565b005b61017f61018f366004612ac0565b61195a565b6000546101a7906001600160a01b031681565b6040516001600160a01b0390911681526020016100f4565b61013c6101cd366004612ac0565b60026020526000908152604090205460ff1681565b61013c6101f0366004612af0565b6119cd565b6100e76102033660046128b3565b6119e6565b6001546040519081526020016100f4565b6100e761211f565b61017f61022f366004612ac0565b6126ce565b60606000805b6005548110156102da57836040516020016102559190612c81565b604051602081830303815290604052805190602001206005828154811061027e5761027e612c9d565b90600052602060002090600c020160080160405160200161029f9190612ced565b60405160208183030381529060405280519060200120036102c857816102c481612d79565b9250505b806102d281612d79565b91505061023a565b5060008167ffffffffffffffff8111156102f6576102f6612810565b60405190808252806020026020018201604052801561032f57816020015b61031c6127a6565b8152602001906001900390816103145790505b5090506000805b60055481101561096d57856040516020016103519190612c81565b604051602081830303815290604052805190602001206005828154811061037a5761037a612c9d565b90600052602060002090600c020160080160405160200161039b9190612ced565b604051602081830303815290604052805190602001200361095b57600581815481106103c9576103c9612c9d565b90600052602060002090600c020160405180610180016040529081600082015481526020016001820180546103fd90612cb3565b80601f016020809104026020016040519081016040528092919081815260200182805461042990612cb3565b80156104765780601f1061044b57610100808354040283529160200191610476565b820191906000526020600020905b81548152906001019060200180831161045957829003601f168201915b5050505050815260200160028201805461048f90612cb3565b80601f01602080910402602001604051908101604052809291908181526020018280546104bb90612cb3565b80156105085780601f106104dd57610100808354040283529160200191610508565b820191906000526020600020905b8154815290600101906020018083116104eb57829003601f168201915b5050505050815260200160038201805461052190612cb3565b80601f016020809104026020016040519081016040528092919081815260200182805461054d90612cb3565b801561059a5780601f1061056f5761010080835404028352916020019161059a565b820191906000526020600020905b81548152906001019060200180831161057d57829003601f168201915b505050505081526020016004820180546105b390612cb3565b80601f01602080910402602001604051908101604052809291908181526020018280546105df90612cb3565b801561062c5780601f106106015761010080835404028352916020019161062c565b820191906000526020600020905b81548152906001019060200180831161060f57829003601f168201915b5050505050815260200160058201805461064590612cb3565b80601f016020809104026020016040519081016040528092919081815260200182805461067190612cb3565b80156106be5780601f10610693576101008083540402835291602001916106be565b820191906000526020600020905b8154815290600101906020018083116106a157829003601f168201915b505050505081526020016006820180546106d790612cb3565b80601f016020809104026020016040519081016040528092919081815260200182805461070390612cb3565b80156107505780601f1061072557610100808354040283529160200191610750565b820191906000526020600020905b81548152906001019060200180831161073357829003601f168201915b5050505050815260200160078201805461076990612cb3565b80601f016020809104026020016040519081016040528092919081815260200182805461079590612cb3565b80156107e25780601f106107b7576101008083540402835291602001916107e2565b820191906000526020600020905b8154815290600101906020018083116107c557829003601f168201915b505050505081526020016008820180546107fb90612cb3565b80601f016020809104026020016040519081016040528092919081815260200182805461082790612cb3565b80156108745780601f1061084957610100808354040283529160200191610874565b820191906000526020600020905b81548152906001019060200180831161085757829003601f168201915b5050505050815260200160098201805461088d90612cb3565b80601f01602080910402602001604051908101604052809291908181526020018280546108b990612cb3565b80156109065780601f106108db57610100808354040283529160200191610906565b820191906000526020600020905b8154815290600101906020018083116108e957829003601f168201915b5050509183525050600a8201546020820152600b909101546001600160a01b0316604090910152835184908490811061094157610941612c9d565b6020026020010181905250818061095790612d79565b9250505b8061096581612d79565b915050610336565b5090949350505050565b6001600160a01b0381166000908152600360209081526040808320805482518185028101850190935280835260609492939192909184015b82821015610f3157838290600052602060002090600c020160405180610180016040529081600082015481526020016001820180546109ed90612cb3565b80601f0160208091040260200160405190810160405280929190818152602001828054610a1990612cb3565b8015610a665780601f10610a3b57610100808354040283529160200191610a66565b820191906000526020600020905b815481529060010190602001808311610a4957829003601f168201915b50505050508152602001600282018054610a7f90612cb3565b80601f0160208091040260200160405190810160405280929190818152602001828054610aab90612cb3565b8015610af85780601f10610acd57610100808354040283529160200191610af8565b820191906000526020600020905b815481529060010190602001808311610adb57829003601f168201915b50505050508152602001600382018054610b1190612cb3565b80601f0160208091040260200160405190810160405280929190818152602001828054610b3d90612cb3565b8015610b8a5780601f10610b5f57610100808354040283529160200191610b8a565b820191906000526020600020905b815481529060010190602001808311610b6d57829003601f168201915b50505050508152602001600482018054610ba390612cb3565b80601f0160208091040260200160405190810160405280929190818152602001828054610bcf90612cb3565b8015610c1c5780601f10610bf157610100808354040283529160200191610c1c565b820191906000526020600020905b815481529060010190602001808311610bff57829003601f168201915b50505050508152602001600582018054610c3590612cb3565b80601f0160208091040260200160405190810160405280929190818152602001828054610c6190612cb3565b8015610cae5780601f10610c8357610100808354040283529160200191610cae565b820191906000526020600020905b815481529060010190602001808311610c9157829003601f168201915b50505050508152602001600682018054610cc790612cb3565b80601f0160208091040260200160405190810160405280929190818152602001828054610cf390612cb3565b8015610d405780601f10610d1557610100808354040283529160200191610d40565b820191906000526020600020905b815481529060010190602001808311610d2357829003601f168201915b50505050508152602001600782018054610d5990612cb3565b80601f0160208091040260200160405190810160405280929190818152602001828054610d8590612cb3565b8015610dd25780601f10610da757610100808354040283529160200191610dd2565b820191906000526020600020905b815481529060010190602001808311610db557829003601f168201915b50505050508152602001600882018054610deb90612cb3565b80601f0160208091040260200160405190810160405280929190818152602001828054610e1790612cb3565b8015610e645780601f10610e3957610100808354040283529160200191610e64565b820191906000526020600020905b815481529060010190602001808311610e4757829003601f168201915b50505050508152602001600982018054610e7d90612cb3565b80601f0160208091040260200160405190810160405280929190818152602001828054610ea990612cb3565b8015610ef65780601f10610ecb57610100808354040283529160200191610ef6565b820191906000526020600020905b815481529060010190602001808311610ed957829003601f168201915b5050509183525050600a820154602080830191909152600b909201546001600160a01b031660409091015290825260019290920191016109af565b505050509050919050565b610f446127a6565b600082118015610f5657506001548211155b610f995760405162461bcd60e51b815260206004820152600f60248201526e125b9d985b1a590818d85cd9481251608a1b60448201526064015b60405180910390fd5b600460008381526020019081526020016000206040518061018001604052908160008201548152602001600182018054610fd290612cb3565b80601f0160208091040260200160405190810160405280929190818152602001828054610ffe90612cb3565b801561104b5780601f106110205761010080835404028352916020019161104b565b820191906000526020600020905b81548152906001019060200180831161102e57829003601f168201915b5050505050815260200160028201805461106490612cb3565b80601f016020809104026020016040519081016040528092919081815260200182805461109090612cb3565b80156110dd5780601f106110b2576101008083540402835291602001916110dd565b820191906000526020600020905b8154815290600101906020018083116110c057829003601f168201915b505050505081526020016003820180546110f690612cb3565b80601f016020809104026020016040519081016040528092919081815260200182805461112290612cb3565b801561116f5780601f106111445761010080835404028352916020019161116f565b820191906000526020600020905b81548152906001019060200180831161115257829003601f168201915b5050505050815260200160048201805461118890612cb3565b80601f01602080910402602001604051908101604052809291908181526020018280546111b490612cb3565b80156112015780601f106111d657610100808354040283529160200191611201565b820191906000526020600020905b8154815290600101906020018083116111e457829003601f168201915b5050505050815260200160058201805461121a90612cb3565b80601f016020809104026020016040519081016040528092919081815260200182805461124690612cb3565b80156112935780601f1061126857610100808354040283529160200191611293565b820191906000526020600020905b81548152906001019060200180831161127657829003601f168201915b505050505081526020016006820180546112ac90612cb3565b80601f01602080910402602001604051908101604052809291908181526020018280546112d890612cb3565b80156113255780601f106112fa57610100808354040283529160200191611325565b820191906000526020600020905b81548152906001019060200180831161130857829003601f168201915b5050505050815260200160078201805461133e90612cb3565b80601f016020809104026020016040519081016040528092919081815260200182805461136a90612cb3565b80156113b75780601f1061138c576101008083540402835291602001916113b7565b820191906000526020600020905b81548152906001019060200180831161139a57829003601f168201915b505050505081526020016008820180546113d090612cb3565b80601f01602080910402602001604051908101604052809291908181526020018280546113fc90612cb3565b80156114495780601f1061141e57610100808354040283529160200191611449565b820191906000526020600020905b81548152906001019060200180831161142c57829003601f168201915b5050505050815260200160098201805461146290612cb3565b80601f016020809104026020016040519081016040528092919081815260200182805461148e90612cb3565b80156114db5780601f106114b0576101008083540402835291602001916114db565b820191906000526020600020905b8154815290600101906020018083116114be57829003601f168201915b5050509183525050600a8201546020820152600b909101546001600160a01b031660409091015292915050565b3360009081526002602052604090205460ff166115605760405162461bcd60e51b81526020600482015260166024820152752737ba1030903bb434ba32b634b9ba32b2103ab9b2b960511b6044820152606401610f90565b60018060008282546115729190612d92565b9091555050604080516101808101825260018054825260208083018d81528385018d9052606084018c9052608084018b905260a084018a905260c0840189905260e08401889052610100840187905261012084018690524261014085015233610160850181905260009081526003835294852080548085018255908652919094208351600c9092020190815592519192839290918201906116139082612df4565b50604082015160028201906116289082612df4565b506060820151600382019061163d9082612df4565b50608082015160048201906116529082612df4565b5060a082015160058201906116679082612df4565b5060c0820151600682019061167c9082612df4565b5060e082015160078201906116919082612df4565b5061010082015160088201906116a79082612df4565b5061012082015160098201906116bd9082612df4565b50610140820151600a82015561016090910151600b90910180546001600160a01b0319166001600160a01b039092169190911790556005805460018101825560009190915281517f036b6384b5eca791c62761152d0c79bb0604c104a5fb6f4eb0703f3154bb3db0600c909202918201908155602083015183927f036b6384b5eca791c62761152d0c79bb0604c104a5fb6f4eb0703f3154bb3db101906117649082612df4565b50604082015160028201906117799082612df4565b506060820151600382019061178e9082612df4565b50608082015160048201906117a39082612df4565b5060a082015160058201906117b89082612df4565b5060c082015160068201906117cd9082612df4565b5060e082015160078201906117e29082612df4565b5061010082015160088201906117f89082612df4565b50610120820151600982019061180e9082612df4565b50610140820151600a82015561016090910151600b90910180546001600160a01b0319166001600160a01b039092169190911790556001805460009081526004602090815260409091208351815590830151839282019061186f9082612df4565b50604082015160028201906118849082612df4565b50606082015160038201906118999082612df4565b50608082015160048201906118ae9082612df4565b5060a082015160058201906118c39082612df4565b5060c082015160068201906118d89082612df4565b5060e082015160078201906118ed9082612df4565b5061010082015160088201906119039082612df4565b5061012082015160098201906119199082612df4565b50610140820151600a82015561016090910151600b90910180546001600160a01b0319166001600160a01b0390921691909117905550505050505050505050565b6000546001600160a01b031633146119a95760405162461bcd60e51b81526020600482015260126024820152712737ba1031b7b73a3930b1ba1037bbb732b960711b6044820152606401610f90565b6001600160a01b03166000908152600260205260409020805460ff19166001179055565b600080821180156119e057506001548211155b92915050565b60606000805b600554811015611a8c5783604051602001611a079190612c81565b6040516020818303038152906040528051906020012060058281548110611a3057611a30612c9d565b90600052602060002090600c0201600901604051602001611a519190612ced565b6040516020818303038152906040528051906020012003611a7a5781611a7681612d79565b9250505b80611a8481612d79565b9150506119ec565b5060008167ffffffffffffffff811115611aa857611aa8612810565b604051908082528060200260200182016040528015611ae157816020015b611ace6127a6565b815260200190600190039081611ac65790505b5090506000805b60055481101561096d5785604051602001611b039190612c81565b6040516020818303038152906040528051906020012060058281548110611b2c57611b2c612c9d565b90600052602060002090600c0201600901604051602001611b4d9190612ced565b604051602081830303815290604052805190602001200361210d5760058181548110611b7b57611b7b612c9d565b90600052602060002090600c02016040518061018001604052908160008201548152602001600182018054611baf90612cb3565b80601f0160208091040260200160405190810160405280929190818152602001828054611bdb90612cb3565b8015611c285780601f10611bfd57610100808354040283529160200191611c28565b820191906000526020600020905b815481529060010190602001808311611c0b57829003601f168201915b50505050508152602001600282018054611c4190612cb3565b80601f0160208091040260200160405190810160405280929190818152602001828054611c6d90612cb3565b8015611cba5780601f10611c8f57610100808354040283529160200191611cba565b820191906000526020600020905b815481529060010190602001808311611c9d57829003601f168201915b50505050508152602001600382018054611cd390612cb3565b80601f0160208091040260200160405190810160405280929190818152602001828054611cff90612cb3565b8015611d4c5780601f10611d2157610100808354040283529160200191611d4c565b820191906000526020600020905b815481529060010190602001808311611d2f57829003601f168201915b50505050508152602001600482018054611d6590612cb3565b80601f0160208091040260200160405190810160405280929190818152602001828054611d9190612cb3565b8015611dde5780601f10611db357610100808354040283529160200191611dde565b820191906000526020600020905b815481529060010190602001808311611dc157829003601f168201915b50505050508152602001600582018054611df790612cb3565b80601f0160208091040260200160405190810160405280929190818152602001828054611e2390612cb3565b8015611e705780601f10611e4557610100808354040283529160200191611e70565b820191906000526020600020905b815481529060010190602001808311611e5357829003601f168201915b50505050508152602001600682018054611e8990612cb3565b80601f0160208091040260200160405190810160405280929190818152602001828054611eb590612cb3565b8015611f025780601f10611ed757610100808354040283529160200191611f02565b820191906000526020600020905b815481529060010190602001808311611ee557829003601f168201915b50505050508152602001600782018054611f1b90612cb3565b80601f0160208091040260200160405190810160405280929190818152602001828054611f4790612cb3565b8015611f945780601f10611f6957610100808354040283529160200191611f94565b820191906000526020600020905b815481529060010190602001808311611f7757829003601f168201915b50505050508152602001600882018054611fad90612cb3565b80601f0160208091040260200160405190810160405280929190818152602001828054611fd990612cb3565b80156120265780601f10611ffb57610100808354040283529160200191612026565b820191906000526020600020905b81548152906001019060200180831161200957829003601f168201915b5050505050815260200160098201805461203f90612cb3565b80601f016020809104026020016040519081016040528092919081815260200182805461206b90612cb3565b80156120b85780601f1061208d576101008083540402835291602001916120b8565b820191906000526020600020905b81548152906001019060200180831161209b57829003601f168201915b5050509183525050600a8201546020820152600b909101546001600160a01b031660409091015283518490849081106120f3576120f3612c9d565b6020026020010181905250818061210990612d79565b9250505b8061211781612d79565b915050611ae8565b60606005805480602002602001604051908101604052809291908181526020016000905b828210156126c557838290600052602060002090600c0201604051806101800160405290816000820154815260200160018201805461218190612cb3565b80601f01602080910402602001604051908101604052809291908181526020018280546121ad90612cb3565b80156121fa5780601f106121cf576101008083540402835291602001916121fa565b820191906000526020600020905b8154815290600101906020018083116121dd57829003601f168201915b5050505050815260200160028201805461221390612cb3565b80601f016020809104026020016040519081016040528092919081815260200182805461223f90612cb3565b801561228c5780601f106122615761010080835404028352916020019161228c565b820191906000526020600020905b81548152906001019060200180831161226f57829003601f168201915b505050505081526020016003820180546122a590612cb3565b80601f01602080910402602001604051908101604052809291908181526020018280546122d190612cb3565b801561231e5780601f106122f35761010080835404028352916020019161231e565b820191906000526020600020905b81548152906001019060200180831161230157829003601f168201915b5050505050815260200160048201805461233790612cb3565b80601f016020809104026020016040519081016040528092919081815260200182805461236390612cb3565b80156123b05780601f10612385576101008083540402835291602001916123b0565b820191906000526020600020905b81548152906001019060200180831161239357829003601f168201915b505050505081526020016005820180546123c990612cb3565b80601f01602080910402602001604051908101604052809291908181526020018280546123f590612cb3565b80156124425780601f1061241757610100808354040283529160200191612442565b820191906000526020600020905b81548152906001019060200180831161242557829003601f168201915b5050505050815260200160068201805461245b90612cb3565b80601f016020809104026020016040519081016040528092919081815260200182805461248790612cb3565b80156124d45780601f106124a9576101008083540402835291602001916124d4565b820191906000526020600020905b8154815290600101906020018083116124b757829003601f168201915b505050505081526020016007820180546124ed90612cb3565b80601f016020809104026020016040519081016040528092919081815260200182805461251990612cb3565b80156125665780601f1061253b57610100808354040283529160200191612566565b820191906000526020600020905b81548152906001019060200180831161254957829003601f168201915b5050505050815260200160088201805461257f90612cb3565b80601f01602080910402602001604051908101604052809291908181526020018280546125ab90612cb3565b80156125f85780601f106125cd576101008083540402835291602001916125f8565b820191906000526020600020905b8154815290600101906020018083116125db57829003601f168201915b5050505050815260200160098201805461261190612cb3565b80601f016020809104026020016040519081016040528092919081815260200182805461263d90612cb3565b801561268a5780601f1061265f5761010080835404028352916020019161268a565b820191906000526020600020905b81548152906001019060200180831161266d57829003601f168201915b5050509183525050600a820154602080830191909152600b909201546001600160a01b03166040909101529082526001929092019101612143565b50505050905090565b6000546001600160a01b0316331461271d5760405162461bcd60e51b81526020600482015260126024820152712737ba1031b7b73a3930b1ba1037bbb732b960711b6044820152606401610f90565b6001600160a01b03811660009081526002602052604090205460ff166127855760405162461bcd60e51b815260206004820152601760248201527f55736572206973206e6f742077686974656c69737465640000000000000000006044820152606401610f90565b6001600160a01b03166000908152600260205260409020805460ff19169055565b604051806101800160405280600081526020016060815260200160608152602001606081526020016060815260200160608152602001606081526020016060815260200160608152602001606081526020016000815260200160006001600160a01b031681525090565b634e487b7160e01b600052604160045260246000fd5b600082601f83011261283757600080fd5b813567ffffffffffffffff8082111561285257612852612810565b604051601f8301601f19908116603f0116810190828211818310171561287a5761287a612810565b8160405283815286602085880101111561289357600080fd5b836020870160208301376000602085830101528094505050505092915050565b6000602082840312156128c557600080fd5b813567ffffffffffffffff8111156128dc57600080fd5b6128e884828501612826565b949350505050565b60005b8381101561290b5781810151838201526020016128f3565b50506000910152565b6000815180845261292c8160208601602086016128f0565b601f01601f19169290920160200192915050565b600061018082518452602083015181602086015261296082860182612914565b9150506040830151848203604086015261297a8282612914565b915050606083015184820360608601526129948282612914565b915050608083015184820360808601526129ae8282612914565b91505060a083015184820360a08601526129c88282612914565b91505060c083015184820360c08601526129e28282612914565b91505060e083015184820360e08601526129fc8282612914565b9150506101008084015185830382870152612a178382612914565b925050506101208084015185830382870152612a338382612914565b925050506101408084015181860152506101608084015161096d828701826001600160a01b03169052565b6000602080830181845280855180835260408601915060408160051b870101925083870160005b82811015612ab357603f19888603018452612aa1858351612940565b94509285019290850190600101612a85565b5092979650505050505050565b600060208284031215612ad257600080fd5b81356001600160a01b0381168114612ae957600080fd5b9392505050565b600060208284031215612b0257600080fd5b5035919050565b602081526000612ae96020830184612940565b60008060008060008060008060006101208a8c031215612b3b57600080fd5b893567ffffffffffffffff80821115612b5357600080fd5b612b5f8d838e01612826565b9a5060208c0135915080821115612b7557600080fd5b612b818d838e01612826565b995060408c0135915080821115612b9757600080fd5b612ba38d838e01612826565b985060608c0135915080821115612bb957600080fd5b612bc58d838e01612826565b975060808c0135915080821115612bdb57600080fd5b612be78d838e01612826565b965060a08c0135915080821115612bfd57600080fd5b612c098d838e01612826565b955060c08c0135915080821115612c1f57600080fd5b612c2b8d838e01612826565b945060e08c0135915080821115612c4157600080fd5b612c4d8d838e01612826565b93506101008c0135915080821115612c6457600080fd5b50612c718c828d01612826565b9150509295985092959850929598565b60008251612c938184602087016128f0565b9190910192915050565b634e487b7160e01b600052603260045260246000fd5b600181811c90821680612cc757607f821691505b602082108103612ce757634e487b7160e01b600052602260045260246000fd5b50919050565b6000808354612cfb81612cb3565b60018281168015612d135760018114612d2857612d57565b60ff1984168752821515830287019450612d57565b8760005260208060002060005b85811015612d4e5781548a820152908401908201612d35565b50505082870194505b50929695505050505050565b634e487b7160e01b600052601160045260246000fd5b600060018201612d8b57612d8b612d63565b5060010190565b808201808211156119e0576119e0612d63565b601f821115612def57600081815260208120601f850160051c81016020861015612dcc5750805b601f850160051c820191505b81811015612deb57828155600101612dd8565b5050505b505050565b815167ffffffffffffffff811115612e0e57612e0e612810565b612e2281612e1c8454612cb3565b84612da5565b602080601f831160018114612e575760008415612e3f5750858301515b600019600386901b1c1916600185901b178555612deb565b600085815260208120601f198616915b82811015612e8657888601518255948401946001909101908401612e67565b5085821015612ea45787850151600019600388901b60f8161c191681555b5050505050600190811b0190555056fea264697066735822122060171b769eff6713ec95bf95d4d091380b7a8fd03eb29b93cceced65a5b33afa64736f6c63430008140033",
  "linkReferences": {},
  "deployedLinkReferences": {}
}